{
  "_format": "hh-sol-artifact-1",
  "contractName": "PuntoArena",
  "sourceName": "contracts/PuntoArena.sol",
  "abi": [
    {
      "inputs": [
        {
          "internalType": "address",
          "name": "_oracle",
          "type": "address"
        }
      ],
      "stateMutability": "nonpayable",
      "type": "constructor"
    },
    {
      "anonymous": false,
      "inputs": [
        {
          "indexed": true,
          "internalType": "uint256",
          "name": "gameId",
          "type": "uint256"
        },
        {
          "indexed": false,
          "internalType": "string",
          "name": "reason",
          "type": "string"
        }
      ],
      "name": "GameCancelled",
      "type": "event"
    },
    {
      "anonymous": false,
      "inputs": [
        {
          "indexed": true,
          "internalType": "uint256",
          "name": "gameId",
          "type": "uint256"
        },
        {
          "indexed": true,
          "internalType": "address",
          "name": "player1",
          "type": "address"
        },
        {
          "indexed": false,
          "internalType": "uint256",
          "name": "wager",
          "type": "uint256"
        },
        {
          "indexed": false,
          "internalType": "string",
          "name": "roomId",
          "type": "string"
        }
      ],
      "name": "GameCreated",
      "type": "event"
    },
    {
      "anonymous": false,
      "inputs": [
        {
          "indexed": true,
          "internalType": "uint256",
          "name": "gameId",
          "type": "uint256"
        },
        {
          "indexed": true,
          "internalType": "address",
          "name": "winner",
          "type": "address"
        },
        {
          "indexed": false,
          "internalType": "uint256",
          "name": "payout",
          "type": "uint256"
        },
        {
          "indexed": false,
          "internalType": "uint256",
          "name": "fee",
          "type": "uint256"
        }
      ],
      "name": "GameFinished",
      "type": "event"
    },
    {
      "anonymous": false,
      "inputs": [
        {
          "indexed": true,
          "internalType": "uint256",
          "name": "gameId",
          "type": "uint256"
        },
        {
          "indexed": true,
          "internalType": "address",
          "name": "player2",
          "type": "address"
        }
      ],
      "name": "GameJoined",
      "type": "event"
    },
    {
      "anonymous": false,
      "inputs": [
        {
          "indexed": false,
          "internalType": "address",
          "name": "oldOracle",
          "type": "address"
        },
        {
          "indexed": false,
          "internalType": "address",
          "name": "newOracle",
          "type": "address"
        }
      ],
      "name": "OracleUpdated",
      "type": "event"
    },
    {
      "anonymous": false,
      "inputs": [
        {
          "indexed": false,
          "internalType": "uint256",
          "name": "oldFee",
          "type": "uint256"
        },
        {
          "indexed": false,
          "internalType": "uint256",
          "name": "newFee",
          "type": "uint256"
        }
      ],
      "name": "ProtocolFeeUpdated",
      "type": "event"
    },
    {
      "inputs": [
        {
          "internalType": "uint256",
          "name": "wager",
          "type": "uint256"
        }
      ],
      "name": "calculatePayout",
      "outputs": [
        {
          "internalType": "uint256",
          "name": "payout",
          "type": "uint256"
        },
        {
          "internalType": "uint256",
          "name": "fee",
          "type": "uint256"
        }
      ],
      "stateMutability": "view",
      "type": "function"
    },
    {
      "inputs": [
        {
          "internalType": "string",
          "name": "roomId",
          "type": "string"
        }
      ],
      "name": "createGame",
      "outputs": [
        {
          "internalType": "uint256",
          "name": "",
          "type": "uint256"
        }
      ],
      "stateMutability": "payable",
      "type": "function"
    },
    {
      "inputs": [
        {
          "internalType": "uint256",
          "name": "gameId",
          "type": "uint256"
        }
      ],
      "name": "emergencyRefund",
      "outputs": [],
      "stateMutability": "nonpayable",
      "type": "function"
    },
    {
      "inputs": [],
      "name": "gameCounter",
      "outputs": [
        {
          "internalType": "uint256",
          "name": "",
          "type": "uint256"
        }
      ],
      "stateMutability": "view",
      "type": "function"
    },
    {
      "inputs": [
        {
          "internalType": "uint256",
          "name": "",
          "type": "uint256"
        }
      ],
      "name": "games",
      "outputs": [
        {
          "internalType": "address",
          "name": "player1",
          "type": "address"
        },
        {
          "internalType": "address",
          "name": "player2",
          "type": "address"
        },
        {
          "internalType": "uint256",
          "name": "wager",
          "type": "uint256"
        },
        {
          "internalType": "enum PuntoArena.GameState",
          "name": "state",
          "type": "uint8"
        },
        {
          "internalType": "address",
          "name": "winner",
          "type": "address"
        },
        {
          "internalType": "uint256",
          "name": "createdAt",
          "type": "uint256"
        },
        {
          "internalType": "string",
          "name": "roomId",
          "type": "string"
        }
      ],
      "stateMutability": "view",
      "type": "function"
    },
    {
      "inputs": [
        {
          "internalType": "uint256",
          "name": "gameId",
          "type": "uint256"
        }
      ],
      "name": "getGame",
      "outputs": [
        {
          "components": [
            {
              "internalType": "address",
              "name": "player1",
              "type": "address"
            },
            {
              "internalType": "address",
              "name": "player2",
              "type": "address"
            },
            {
              "internalType": "uint256",
              "name": "wager",
              "type": "uint256"
            },
            {
              "internalType": "enum PuntoArena.GameState",
              "name": "state",
              "type": "uint8"
            },
            {
              "internalType": "address",
              "name": "winner",
              "type": "address"
            },
            {
              "internalType": "uint256",
              "name": "createdAt",
              "type": "uint256"
            },
            {
              "internalType": "string",
              "name": "roomId",
              "type": "string"
            }
          ],
          "internalType": "struct PuntoArena.Game",
          "name": "",
          "type": "tuple"
        }
      ],
      "stateMutability": "view",
      "type": "function"
    },
    {
      "inputs": [
        {
          "internalType": "string",
          "name": "roomId",
          "type": "string"
        }
      ],
      "name": "getGameByRoomId",
      "outputs": [
        {
          "components": [
            {
              "internalType": "address",
              "name": "player1",
              "type": "address"
            },
            {
              "internalType": "address",
              "name": "player2",
              "type": "address"
            },
            {
              "internalType": "uint256",
              "name": "wager",
              "type": "uint256"
            },
            {
              "internalType": "enum PuntoArena.GameState",
              "name": "state",
              "type": "uint8"
            },
            {
              "internalType": "address",
              "name": "winner",
              "type": "address"
            },
            {
              "internalType": "uint256",
              "name": "createdAt",
              "type": "uint256"
            },
            {
              "internalType": "string",
              "name": "roomId",
              "type": "string"
            }
          ],
          "internalType": "struct PuntoArena.Game",
          "name": "",
          "type": "tuple"
        }
      ],
      "stateMutability": "view",
      "type": "function"
    },
    {
      "inputs": [
        {
          "internalType": "uint256",
          "name": "gameId",
          "type": "uint256"
        }
      ],
      "name": "joinGame",
      "outputs": [],
      "stateMutability": "payable",
      "type": "function"
    },
    {
      "inputs": [],
      "name": "minimumWager",
      "outputs": [
        {
          "internalType": "uint256",
          "name": "",
          "type": "uint256"
        }
      ],
      "stateMutability": "view",
      "type": "function"
    },
    {
      "inputs": [],
      "name": "oracle",
      "outputs": [
        {
          "internalType": "address",
          "name": "",
          "type": "address"
        }
      ],
      "stateMutability": "view",
      "type": "function"
    },
    {
      "inputs": [],
      "name": "owner",
      "outputs": [
        {
          "internalType": "address",
          "name": "",
          "type": "address"
        }
      ],
      "stateMutability": "view",
      "type": "function"
    },
    {
      "inputs": [],
      "name": "protocolFeeBps",
      "outputs": [
        {
          "internalType": "uint256",
          "name": "",
          "type": "uint256"
        }
      ],
      "stateMutability": "view",
      "type": "function"
    },
    {
      "inputs": [
        {
          "internalType": "string",
          "name": "",
          "type": "string"
        }
      ],
      "name": "roomIdToGameId",
      "outputs": [
        {
          "internalType": "uint256",
          "name": "",
          "type": "uint256"
        }
      ],
      "stateMutability": "view",
      "type": "function"
    },
    {
      "inputs": [
        {
          "internalType": "uint256",
          "name": "newMinimum",
          "type": "uint256"
        }
      ],
      "name": "setMinimumWager",
      "outputs": [],
      "stateMutability": "nonpayable",
      "type": "function"
    },
    {
      "inputs": [
        {
          "internalType": "address",
          "name": "newOracle",
          "type": "address"
        }
      ],
      "name": "setOracle",
      "outputs": [],
      "stateMutability": "nonpayable",
      "type": "function"
    },
    {
      "inputs": [
        {
          "internalType": "uint256",
          "name": "newFeeBps",
          "type": "uint256"
        }
      ],
      "name": "setProtocolFee",
      "outputs": [],
      "stateMutability": "nonpayable",
      "type": "function"
    },
    {
      "inputs": [
        {
          "internalType": "uint256",
          "name": "gameId",
          "type": "uint256"
        },
        {
          "internalType": "address",
          "name": "winner",
          "type": "address"
        }
      ],
      "name": "submitResult",
      "outputs": [],
      "stateMutability": "nonpayable",
      "type": "function"
    }
  ],
  "bytecode": "0x60806040526101f460025566038d7ea4c680006004553480156200002257600080fd5b5060405162003473380380620034738339818101604052810190620000489190620001ac565b600073ffffffffffffffffffffffffffffffffffffffff168173ffffffffffffffffffffffffffffffffffffffff1603620000ba576040517f08c379a0000000000000000000000000000000000000000000000000000000008152600401620000b1906200023f565b60405180910390fd5b806000806101000a81548173ffffffffffffffffffffffffffffffffffffffff021916908373ffffffffffffffffffffffffffffffffffffffff16021790555033600160006101000a81548173ffffffffffffffffffffffffffffffffffffffff021916908373ffffffffffffffffffffffffffffffffffffffff1602179055505062000261565b600080fd5b600073ffffffffffffffffffffffffffffffffffffffff82169050919050565b6000620001748262000147565b9050919050565b620001868162000167565b81146200019257600080fd5b50565b600081519050620001a6816200017b565b92915050565b600060208284031215620001c557620001c462000142565b5b6000620001d58482850162000195565b91505092915050565b600082825260208201905092915050565b7f496e76616c6964206f7261636c65000000000000000000000000000000000000600082015250565b600062000227600e83620001de565b91506200023482620001ef565b602082019050919050565b600060208201905081810360008301526200025a8162000218565b9050919050565b61320280620002716000396000f3fe6080604052600436106100fe5760003560e01c80637dc0d1d011610095578063a2f77bcc11610064578063a2f77bcc1461032d578063abfdcea61461036a578063b19068c7146103a7578063bbca563d146103d2578063efaa55a01461040f576100fe565b80637dc0d1d0146102855780637f7f8968146102b05780638da5cb5b146102d957806392dc24bb14610304576100fe565b80633bb91c77116100d15780633bb91c77146101cc57806370e5deb91461020a578063787dce3d146102335780637adbf9731461025c576100fe565b8063117a5b90146101035780632e0be39a146101465780632ebc05041461017157806335659fb8146101a1575b600080fd5b34801561010f57600080fd5b5061012a60048036038101906101259190611e00565b61042b565b60405161013d9796959493929190611f84565b60405180910390f35b34801561015257600080fd5b5061015b610562565b6040516101689190611ffa565b60405180910390f35b61018b6004803603810190610186919061207a565b610568565b6040516101989190611ffa565b60405180910390f35b3480156101ad57600080fd5b506101b6610906565b6040516101c39190611ffa565b60405180910390f35b3480156101d857600080fd5b506101f360048036038101906101ee9190611e00565b61090c565b6040516102019291906120c7565b60405180910390f35b34801561021657600080fd5b50610231600480360381019061022c9190611e00565b610951565b005b34801561023f57600080fd5b5061025a60048036038101906102559190611e00565b610e10565b005b34801561026857600080fd5b50610283600480360381019061027e919061211c565b610f30565b005b34801561029157600080fd5b5061029a6110d2565b6040516102a79190612149565b60405180910390f35b3480156102bc57600080fd5b506102d760048036038101906102d29190611e00565b6110f6565b005b3480156102e557600080fd5b506102ee611190565b6040516102fb9190612149565b60405180910390f35b34801561031057600080fd5b5061032b60048036038101906103269190612164565b6111b6565b005b34801561033957600080fd5b50610354600480360381019061034f9190611e00565b611648565b60405161036191906122b7565b60405180910390f35b34801561037657600080fd5b50610391600480360381019061038c919061207a565b611858565b60405161039e91906122b7565b60405180910390f35b3480156103b357600080fd5b506103bc611ad2565b6040516103c99190611ffa565b60405180910390f35b3480156103de57600080fd5b506103f960048036038101906103f49190612409565b611ad8565b6040516104069190611ffa565b60405180910390f35b61042960048036038101906104249190611e00565b611b06565b005b60056020528060005260406000206000915090508060000160009054906101000a900473ffffffffffffffffffffffffffffffffffffffff16908060010160009054906101000a900473ffffffffffffffffffffffffffffffffffffffff16908060020154908060030160009054906101000a900460ff16908060030160019054906101000a900473ffffffffffffffffffffffffffffffffffffffff16908060040154908060050180546104df90612481565b80601f016020809104026020016040519081016040528092919081815260200182805461050b90612481565b80156105585780601f1061052d57610100808354040283529160200191610558565b820191906000526020600020905b81548152906001019060200180831161053b57829003601f168201915b5050505050905087565b60035481565b60006004543410156105af576040517f08c379a00000000000000000000000000000000000000000000000000000000081526004016105a6906124fe565b60405180910390fd5b600083839050116105f5576040517f08c379a00000000000000000000000000000000000000000000000000000000081526004016105ec9061256a565b60405180910390fd5b6000600684846040516106099291906125ba565b90815260200160405180910390205414610658576040517f08c379a000000000000000000000000000000000000000000000000000000000815260040161064f9061261f565b60405180910390fd5b60006003600081546106699061266e565b91905081905590506040518060e001604052803373ffffffffffffffffffffffffffffffffffffffff168152602001600073ffffffffffffffffffffffffffffffffffffffff168152602001348152602001600060038111156106cf576106ce611e7d565b5b8152602001600073ffffffffffffffffffffffffffffffffffffffff16815260200142815260200185858080601f016020809104026020016040519081016040528093929190818152602001838380828437600081840152601f19601f820116905080830192505050505050508152506005600083815260200190815260200160002060008201518160000160006101000a81548173ffffffffffffffffffffffffffffffffffffffff021916908373ffffffffffffffffffffffffffffffffffffffff16021790555060208201518160010160006101000a81548173ffffffffffffffffffffffffffffffffffffffff021916908373ffffffffffffffffffffffffffffffffffffffff1602179055506040820151816002015560608201518160030160006101000a81548160ff0219169083600381111561081557610814611e7d565b5b021790555060808201518160030160016101000a81548173ffffffffffffffffffffffffffffffffffffffff021916908373ffffffffffffffffffffffffffffffffffffffff16021790555060a0820151816004015560c08201518160050190816108809190612862565b5090505080600685856040516108979291906125ba565b9081526020016040518091039020819055503373ffffffffffffffffffffffffffffffffffffffff16817f673c28d901d04e99055bbb4458eeb11d7b00f744a97a7efe021b81c9b5e597bc3487876040516108f493929190612961565b60405180910390a38091505092915050565b60025481565b600080600060028461091e9190612993565b9050612710600254826109319190612993565b61093b9190612a04565b915081816109499190612a35565b925050915091565b600160009054906101000a900473ffffffffffffffffffffffffffffffffffffffff1673ffffffffffffffffffffffffffffffffffffffff163373ffffffffffffffffffffffffffffffffffffffff16146109e1576040517f08c379a00000000000000000000000000000000000000000000000000000000081526004016109d890612ab5565b60405180910390fd5b6000600560008381526020019081526020016000209050611c208160040154610a0a9190612ad5565b4211610a4b576040517f08c379a0000000000000000000000000000000000000000000000000000000008152600401610a4290612b55565b60405180910390fd5b60006003811115610a5f57610a5e611e7d565b5b8160030160009054906101000a900460ff166003811115610a8357610a82611e7d565b5b1480610ac4575060016003811115610a9e57610a9d611e7d565b5b8160030160009054906101000a900460ff166003811115610ac257610ac1611e7d565b5b145b610b03576040517f08c379a0000000000000000000000000000000000000000000000000000000008152600401610afa90612bc1565b60405180910390fd5b60038160030160006101000a81548160ff02191690836003811115610b2b57610b2a611e7d565b5b0217905550600073ffffffffffffffffffffffffffffffffffffffff168160010160009054906101000a900473ffffffffffffffffffffffffffffffffffffffff1673ffffffffffffffffffffffffffffffffffffffff1614610d005760008160000160009054906101000a900473ffffffffffffffffffffffffffffffffffffffff1673ffffffffffffffffffffffffffffffffffffffff168260020154604051610bd690612c12565b60006040518083038185875af1925050503d8060008114610c13576040519150601f19603f3d011682016040523d82523d6000602084013e610c18565b606091505b5050905060008260010160009054906101000a900473ffffffffffffffffffffffffffffffffffffffff1673ffffffffffffffffffffffffffffffffffffffff168360020154604051610c6a90612c12565b60006040518083038185875af1925050503d8060008114610ca7576040519150601f19603f3d011682016040523d82523d6000602084013e610cac565b606091505b50509050818015610cba5750805b610cf9576040517f08c379a0000000000000000000000000000000000000000000000000000000008152600401610cf090612c73565b60405180910390fd5b5050610dd6565b60008160000160009054906101000a900473ffffffffffffffffffffffffffffffffffffffff1673ffffffffffffffffffffffffffffffffffffffff168260020154604051610d4e90612c12565b60006040518083038185875af1925050503d8060008114610d8b576040519150601f19603f3d011682016040523d82523d6000602084013e610d90565b606091505b5050905080610dd4576040517f08c379a0000000000000000000000000000000000000000000000000000000008152600401610dcb90612c73565b60405180910390fd5b505b817f0f023b047be6c305859504186f8b03ee5a634f9ab472ff386d3b1de9387c083e604051610e0490612cdf565b60405180910390a25050565b600160009054906101000a900473ffffffffffffffffffffffffffffffffffffffff1673ffffffffffffffffffffffffffffffffffffffff163373ffffffffffffffffffffffffffffffffffffffff1614610ea0576040517f08c379a0000000000000000000000000000000000000000000000000000000008152600401610e9790612ab5565b60405180910390fd5b6103e8811115610ee5576040517f08c379a0000000000000000000000000000000000000000000000000000000008152600401610edc90612d4b565b60405180910390fd5b60006002549050816002819055507fb404cac19fb1cbeff98d325795b08886e3cd8fe8cb1a2f193aac66f13fb239c38183604051610f249291906120c7565b60405180910390a15050565b600160009054906101000a900473ffffffffffffffffffffffffffffffffffffffff1673ffffffffffffffffffffffffffffffffffffffff163373ffffffffffffffffffffffffffffffffffffffff1614610fc0576040517f08c379a0000000000000000000000000000000000000000000000000000000008152600401610fb790612ab5565b60405180910390fd5b600073ffffffffffffffffffffffffffffffffffffffff168173ffffffffffffffffffffffffffffffffffffffff160361102f576040517f08c379a000000000000000000000000000000000000000000000000000000000815260040161102690612db7565b60405180910390fd5b60008060009054906101000a900473ffffffffffffffffffffffffffffffffffffffff169050816000806101000a81548173ffffffffffffffffffffffffffffffffffffffff021916908373ffffffffffffffffffffffffffffffffffffffff1602179055507f078c3b417dadf69374a59793b829c52001247130433427049317bde56607b1b781836040516110c6929190612dd7565b60405180910390a15050565b60008054906101000a900473ffffffffffffffffffffffffffffffffffffffff1681565b600160009054906101000a900473ffffffffffffffffffffffffffffffffffffffff1673ffffffffffffffffffffffffffffffffffffffff163373ffffffffffffffffffffffffffffffffffffffff1614611186576040517f08c379a000000000000000000000000000000000000000000000000000000000815260040161117d90612ab5565b60405180910390fd5b8060048190555050565b600160009054906101000a900473ffffffffffffffffffffffffffffffffffffffff1681565b60008054906101000a900473ffffffffffffffffffffffffffffffffffffffff1673ffffffffffffffffffffffffffffffffffffffff163373ffffffffffffffffffffffffffffffffffffffff1614611244576040517f08c379a000000000000000000000000000000000000000000000000000000000815260040161123b90612e4c565b60405180910390fd5b60006005600084815260200190815260200160002090506001600381111561126f5761126e611e7d565b5b8160030160009054906101000a900460ff16600381111561129357611292611e7d565b5b146112d3576040517f08c379a00000000000000000000000000000000000000000000000000000000081526004016112ca90612eb8565b60405180910390fd5b8060000160009054906101000a900473ffffffffffffffffffffffffffffffffffffffff1673ffffffffffffffffffffffffffffffffffffffff168273ffffffffffffffffffffffffffffffffffffffff16148061138057508060010160009054906101000a900473ffffffffffffffffffffffffffffffffffffffff1673ffffffffffffffffffffffffffffffffffffffff168273ffffffffffffffffffffffffffffffffffffffff16145b6113bf576040517f08c379a00000000000000000000000000000000000000000000000000000000081526004016113b690612f24565b60405180910390fd5b818160030160016101000a81548173ffffffffffffffffffffffffffffffffffffffff021916908373ffffffffffffffffffffffffffffffffffffffff16021790555060028160030160006101000a81548160ff0219169083600381111561142a57611429611e7d565b5b02179055506000600282600201546114429190612993565b90506000612710600254836114579190612993565b6114619190612a04565b9050600081836114719190612a35565b905060008573ffffffffffffffffffffffffffffffffffffffff168260405161149990612c12565b60006040518083038185875af1925050503d80600081146114d6576040519150601f19603f3d011682016040523d82523d6000602084013e6114db565b606091505b505090508061151f576040517f08c379a000000000000000000000000000000000000000000000000000000000815260040161151690612f90565b60405180910390fd5b6000600160009054906101000a900473ffffffffffffffffffffffffffffffffffffffff1673ffffffffffffffffffffffffffffffffffffffff168460405161156790612c12565b60006040518083038185875af1925050503d80600081146115a4576040519150601f19603f3d011682016040523d82523d6000602084013e6115a9565b606091505b50509050806115ed576040517f08c379a00000000000000000000000000000000000000000000000000000000081526004016115e490612ffc565b60405180910390fd5b8673ffffffffffffffffffffffffffffffffffffffff16887f954e7c877bb45d6e9ee4569c86fb830801e43deaa92ecf27305cb38d724c691585876040516116369291906120c7565b60405180910390a35050505050505050565b611650611d25565b600560008381526020019081526020016000206040518060e00160405290816000820160009054906101000a900473ffffffffffffffffffffffffffffffffffffffff1673ffffffffffffffffffffffffffffffffffffffff1673ffffffffffffffffffffffffffffffffffffffff1681526020016001820160009054906101000a900473ffffffffffffffffffffffffffffffffffffffff1673ffffffffffffffffffffffffffffffffffffffff1673ffffffffffffffffffffffffffffffffffffffff168152602001600282015481526020016003820160009054906101000a900460ff16600381111561174957611748611e7d565b5b600381111561175b5761175a611e7d565b5b81526020016003820160019054906101000a900473ffffffffffffffffffffffffffffffffffffffff1673ffffffffffffffffffffffffffffffffffffffff1673ffffffffffffffffffffffffffffffffffffffff168152602001600482015481526020016005820180546117cf90612481565b80601f01602080910402602001604051908101604052809291908181526020018280546117fb90612481565b80156118485780601f1061181d57610100808354040283529160200191611848565b820191906000526020600020905b81548152906001019060200180831161182b57829003601f168201915b5050505050815250509050919050565b611860611d25565b6000600684846040516118749291906125ba565b9081526020016040518091039020549050600081036118c8576040517f08c379a00000000000000000000000000000000000000000000000000000000081526004016118bf90613068565b60405180910390fd5b600560008281526020019081526020016000206040518060e00160405290816000820160009054906101000a900473ffffffffffffffffffffffffffffffffffffffff1673ffffffffffffffffffffffffffffffffffffffff1673ffffffffffffffffffffffffffffffffffffffff1681526020016001820160009054906101000a900473ffffffffffffffffffffffffffffffffffffffff1673ffffffffffffffffffffffffffffffffffffffff1673ffffffffffffffffffffffffffffffffffffffff168152602001600282015481526020016003820160009054906101000a900460ff1660038111156119c1576119c0611e7d565b5b60038111156119d3576119d2611e7d565b5b81526020016003820160019054906101000a900473ffffffffffffffffffffffffffffffffffffffff1673ffffffffffffffffffffffffffffffffffffffff1673ffffffffffffffffffffffffffffffffffffffff16815260200160048201548152602001600582018054611a4790612481565b80601f0160208091040260200160405190810160405280929190818152602001828054611a7390612481565b8015611ac05780601f10611a9557610100808354040283529160200191611ac0565b820191906000526020600020905b815481529060010190602001808311611aa357829003601f168201915b50505050508152505091505092915050565b60045481565b6006818051602081018201805184825260208301602085012081835280955050505050506000915090505481565b600060056000838152602001908152602001600020905060006003811115611b3157611b30611e7d565b5b8160030160009054906101000a900460ff166003811115611b5557611b54611e7d565b5b14611b95576040517f08c379a0000000000000000000000000000000000000000000000000000000008152600401611b8c906130d4565b60405180910390fd5b80600201543414611bdb576040517f08c379a0000000000000000000000000000000000000000000000000000000008152600401611bd290613140565b60405180910390fd5b8060000160009054906101000a900473ffffffffffffffffffffffffffffffffffffffff1673ffffffffffffffffffffffffffffffffffffffff163373ffffffffffffffffffffffffffffffffffffffff1603611c6d576040517f08c379a0000000000000000000000000000000000000000000000000000000008152600401611c64906131ac565b60405180910390fd5b338160010160006101000a81548173ffffffffffffffffffffffffffffffffffffffff021916908373ffffffffffffffffffffffffffffffffffffffff16021790555060018160030160006101000a81548160ff02191690836003811115611cd857611cd7611e7d565b5b02179055503373ffffffffffffffffffffffffffffffffffffffff16827f45c4f9cbafe186141862608c493f28b823fde4c2142bedc3f5169961a73fdd2260405160405180910390a35050565b6040518060e00160405280600073ffffffffffffffffffffffffffffffffffffffff168152602001600073ffffffffffffffffffffffffffffffffffffffff1681526020016000815260200160006003811115611d8557611d84611e7d565b5b8152602001600073ffffffffffffffffffffffffffffffffffffffff16815260200160008152602001606081525090565b6000604051905090565b600080fd5b600080fd5b6000819050919050565b611ddd81611dca565b8114611de857600080fd5b50565b600081359050611dfa81611dd4565b92915050565b600060208284031215611e1657611e15611dc0565b5b6000611e2484828501611deb565b91505092915050565b600073ffffffffffffffffffffffffffffffffffffffff82169050919050565b6000611e5882611e2d565b9050919050565b611e6881611e4d565b82525050565b611e7781611dca565b82525050565b7f4e487b7100000000000000000000000000000000000000000000000000000000600052602160045260246000fd5b60048110611ebd57611ebc611e7d565b5b50565b6000819050611ece82611eac565b919050565b6000611ede82611ec0565b9050919050565b611eee81611ed3565b82525050565b600081519050919050565b600082825260208201905092915050565b60005b83811015611f2e578082015181840152602081019050611f13565b60008484015250505050565b6000601f19601f8301169050919050565b6000611f5682611ef4565b611f608185611eff565b9350611f70818560208601611f10565b611f7981611f3a565b840191505092915050565b600060e082019050611f99600083018a611e5f565b611fa66020830189611e5f565b611fb36040830188611e6e565b611fc06060830187611ee5565b611fcd6080830186611e5f565b611fda60a0830185611e6e565b81810360c0830152611fec8184611f4b565b905098975050505050505050565b600060208201905061200f6000830184611e6e565b92915050565b600080fd5b600080fd5b600080fd5b60008083601f84011261203a57612039612015565b5b8235905067ffffffffffffffff8111156120575761205661201a565b5b6020830191508360018202830111156120735761207261201f565b5b9250929050565b6000806020838503121561209157612090611dc0565b5b600083013567ffffffffffffffff8111156120af576120ae611dc5565b5b6120bb85828601612024565b92509250509250929050565b60006040820190506120dc6000830185611e6e565b6120e96020830184611e6e565b9392505050565b6120f981611e4d565b811461210457600080fd5b50565b600081359050612116816120f0565b92915050565b60006020828403121561213257612131611dc0565b5b600061214084828501612107565b91505092915050565b600060208201905061215e6000830184611e5f565b92915050565b6000806040838503121561217b5761217a611dc0565b5b600061218985828601611deb565b925050602061219a85828601612107565b9150509250929050565b6121ad81611e4d565b82525050565b6121bc81611dca565b82525050565b6121cb81611ed3565b82525050565b600082825260208201905092915050565b60006121ed82611ef4565b6121f781856121d1565b9350612207818560208601611f10565b61221081611f3a565b840191505092915050565b600060e08301600083015161223360008601826121a4565b50602083015161224660208601826121a4565b50604083015161225960408601826121b3565b50606083015161226c60608601826121c2565b50608083015161227f60808601826121a4565b5060a083015161229260a08601826121b3565b5060c083015184820360c08601526122aa82826121e2565b9150508091505092915050565b600060208201905081810360008301526122d1818461221b565b905092915050565b600080fd5b7f4e487b7100000000000000000000000000000000000000000000000000000000600052604160045260246000fd5b61231682611f3a565b810181811067ffffffffffffffff82111715612335576123346122de565b5b80604052505050565b6000612348611db6565b9050612354828261230d565b919050565b600067ffffffffffffffff821115612374576123736122de565b5b61237d82611f3a565b9050602081019050919050565b82818337600083830152505050565b60006123ac6123a784612359565b61233e565b9050828152602081018484840111156123c8576123c76122d9565b5b6123d384828561238a565b509392505050565b600082601f8301126123f0576123ef612015565b5b8135612400848260208601612399565b91505092915050565b60006020828403121561241f5761241e611dc0565b5b600082013567ffffffffffffffff81111561243d5761243c611dc5565b5b612449848285016123db565b91505092915050565b7f4e487b7100000000000000000000000000000000000000000000000000000000600052602260045260246000fd5b6000600282049050600182168061249957607f821691505b6020821081036124ac576124ab612452565b5b50919050565b7f576167657220746f6f206c6f7700000000000000000000000000000000000000600082015250565b60006124e8600d83611eff565b91506124f3826124b2565b602082019050919050565b60006020820190508181036000830152612517816124db565b9050919050565b7f526f6f6d20494420726571756972656400000000000000000000000000000000600082015250565b6000612554601083611eff565b915061255f8261251e565b602082019050919050565b6000602082019050818103600083015261258381612547565b9050919050565b600081905092915050565b60006125a1838561258a565b93506125ae83858461238a565b82840190509392505050565b60006125c7828486612595565b91508190509392505050565b7f526f6f6d20616c72656164792065786973747300000000000000000000000000600082015250565b6000612609601383611eff565b9150612614826125d3565b602082019050919050565b60006020820190508181036000830152612638816125fc565b9050919050565b7f4e487b7100000000000000000000000000000000000000000000000000000000600052601160045260246000fd5b600061267982611dca565b91507fffffffffffffffffffffffffffffffffffffffffffffffffffffffffffffffff82036126ab576126aa61263f565b5b600182019050919050565b60008190508160005260206000209050919050565b60006020601f8301049050919050565b600082821b905092915050565b6000600883026127187fffffffffffffffffffffffffffffffffffffffffffffffffffffffffffffffff826126db565b61272286836126db565b95508019841693508086168417925050509392505050565b6000819050919050565b600061275f61275a61275584611dca565b61273a565b611dca565b9050919050565b6000819050919050565b61277983612744565b61278d61278582612766565b8484546126e8565b825550505050565b600090565b6127a2612795565b6127ad818484612770565b505050565b5b818110156127d1576127c660008261279a565b6001810190506127b3565b5050565b601f821115612816576127e7816126b6565b6127f0846126cb565b810160208510156127ff578190505b61281361280b856126cb565b8301826127b2565b50505b505050565b600082821c905092915050565b60006128396000198460080261281b565b1980831691505092915050565b60006128528383612828565b9150826002028217905092915050565b61286b82611ef4565b67ffffffffffffffff811115612884576128836122de565b5b61288e8254612481565b6128998282856127d5565b600060209050601f8311600181146128cc57600084156128ba578287015190505b6128c48582612846565b86555061292c565b601f1984166128da866126b6565b60005b82811015612902578489015182556001820191506020850194506020810190506128dd565b8683101561291f578489015161291b601f891682612828565b8355505b6001600288020188555050505b505050505050565b60006129408385611eff565b935061294d83858461238a565b61295683611f3a565b840190509392505050565b60006040820190506129766000830186611e6e565b8181036020830152612989818486612934565b9050949350505050565b600061299e82611dca565b91506129a983611dca565b92508282026129b781611dca565b915082820484148315176129ce576129cd61263f565b5b5092915050565b7f4e487b7100000000000000000000000000000000000000000000000000000000600052601260045260246000fd5b6000612a0f82611dca565b9150612a1a83611dca565b925082612a2a57612a296129d5565b5b828204905092915050565b6000612a4082611dca565b9150612a4b83611dca565b9250828203905081811115612a6357612a6261263f565b5b92915050565b7f4f6e6c79206f776e657200000000000000000000000000000000000000000000600082015250565b6000612a9f600a83611eff565b9150612aaa82612a69565b602082019050919050565b60006020820190508181036000830152612ace81612a92565b9050919050565b6000612ae082611dca565b9150612aeb83611dca565b9250828201905080821115612b0357612b0261263f565b5b92915050565b7f546f6f206561726c7920666f7220726566756e64000000000000000000000000600082015250565b6000612b3f601483611eff565b9150612b4a82612b09565b602082019050919050565b60006020820190508181036000830152612b6e81612b32565b9050919050565b7f43616e6e6f7420726566756e642066696e69736865642067616d650000000000600082015250565b6000612bab601b83611eff565b9150612bb682612b75565b602082019050919050565b60006020820190508181036000830152612bda81612b9e565b9050919050565b600081905092915050565b50565b6000612bfc600083612be1565b9150612c0782612bec565b600082019050919050565b6000612c1d82612bef565b9150819050919050565b7f526566756e64206661696c656400000000000000000000000000000000000000600082015250565b6000612c5d600d83611eff565b9150612c6882612c27565b602082019050919050565b60006020820190508181036000830152612c8c81612c50565b9050919050565b7f456d657267656e637920726566756e6400000000000000000000000000000000600082015250565b6000612cc9601083611eff565b9150612cd482612c93565b602082019050919050565b60006020820190508181036000830152612cf881612cbc565b9050919050565b7f46656520746f6f206869676820286d6178203130252900000000000000000000600082015250565b6000612d35601683611eff565b9150612d4082612cff565b602082019050919050565b60006020820190508181036000830152612d6481612d28565b9050919050565b7f496e76616c6964206f7261636c65000000000000000000000000000000000000600082015250565b6000612da1600e83611eff565b9150612dac82612d6b565b602082019050919050565b60006020820190508181036000830152612dd081612d94565b9050919050565b6000604082019050612dec6000830185611e5f565b612df96020830184611e5f565b9392505050565b7f4f6e6c79206f7261636c65000000000000000000000000000000000000000000600082015250565b6000612e36600b83611eff565b9150612e4182612e00565b602082019050919050565b60006020820190508181036000830152612e6581612e29565b9050919050565b7f47616d65206e6f74206163746976650000000000000000000000000000000000600082015250565b6000612ea2600f83611eff565b9150612ead82612e6c565b602082019050919050565b60006020820190508181036000830152612ed181612e95565b9050919050565b7f496e76616c69642077696e6e6572000000000000000000000000000000000000600082015250565b6000612f0e600e83611eff565b9150612f1982612ed8565b602082019050919050565b60006020820190508181036000830152612f3d81612f01565b9050919050565b7f5061796f7574206661696c656400000000000000000000000000000000000000600082015250565b6000612f7a600d83611eff565b9150612f8582612f44565b602082019050919050565b60006020820190508181036000830152612fa981612f6d565b9050919050565b7f466565207472616e73666572206661696c656400000000000000000000000000600082015250565b6000612fe6601383611eff565b9150612ff182612fb0565b602082019050919050565b6000602082019050818103600083015261301581612fd9565b9050919050565b7f526f6f6d206e6f7420666f756e64000000000000000000000000000000000000600082015250565b6000613052600e83611eff565b915061305d8261301c565b602082019050919050565b6000602082019050818103600083015261308181613045565b9050919050565b7f47616d65206e6f74206a6f696e61626c65000000000000000000000000000000600082015250565b60006130be601183611eff565b91506130c982613088565b602082019050919050565b600060208201905081810360008301526130ed816130b1565b9050919050565b7f57726f6e6720776167657220616d6f756e740000000000000000000000000000600082015250565b600061312a601283611eff565b9150613135826130f4565b602082019050919050565b600060208201905081810360008301526131598161311d565b9050919050565b7f43616e6e6f7420706c617920796f757273656c66000000000000000000000000600082015250565b6000613196601483611eff565b91506131a182613160565b602082019050919050565b600060208201905081810360008301526131c581613189565b905091905056fea26469706673582212203f7a2459bf37d8eb118a1c587784782569ad32d72b13e81817bc856f9a38b1cf64736f6c63430008140033",
  "linkReferences": {},
  "deployedLinkReferences": {}
}