{
  "_format": "hh-sol-artifact-1",
  "contractName": "PuntoArena",
  "sourceName": "contracts/PuntoArena.sol",
  "abi": [
    {
      "inputs": [
        {
          "internalType": "address",
          "name": "_oracle",
          "type": "address"
        }
      ],
      "stateMutability": "nonpayable",
      "type": "constructor"
    },
    {
      "inputs": [],
      "name": "ECDSAInvalidSignature",
      "type": "error"
    },
    {
      "inputs": [
        {
          "internalType": "uint256",
          "name": "length",
          "type": "uint256"
        }
      ],
      "name": "ECDSAInvalidSignatureLength",
      "type": "error"
    },
    {
      "inputs": [
        {
          "internalType": "bytes32",
          "name": "s",
          "type": "bytes32"
        }
      ],
      "name": "ECDSAInvalidSignatureS",
      "type": "error"
    },
    {
      "inputs": [
        {
          "internalType": "address",
          "name": "owner",
          "type": "address"
        }
      ],
      "name": "OwnableInvalidOwner",
      "type": "error"
    },
    {
      "inputs": [
        {
          "internalType": "address",
          "name": "account",
          "type": "address"
        }
      ],
      "name": "OwnableUnauthorizedAccount",
      "type": "error"
    },
    {
      "inputs": [],
      "name": "ReentrancyGuardReentrantCall",
      "type": "error"
    },
    {
      "anonymous": false,
      "inputs": [
        {
          "indexed": true,
          "internalType": "address",
          "name": "to",
          "type": "address"
        },
        {
          "indexed": false,
          "internalType": "uint256",
          "name": "amount",
          "type": "uint256"
        }
      ],
      "name": "FeesWithdrawn",
      "type": "event"
    },
    {
      "anonymous": false,
      "inputs": [
        {
          "indexed": true,
          "internalType": "uint256",
          "name": "gameId",
          "type": "uint256"
        },
        {
          "indexed": false,
          "internalType": "string",
          "name": "reason",
          "type": "string"
        }
      ],
      "name": "GameCancelled",
      "type": "event"
    },
    {
      "anonymous": false,
      "inputs": [
        {
          "indexed": true,
          "internalType": "uint256",
          "name": "gameId",
          "type": "uint256"
        },
        {
          "indexed": true,
          "internalType": "address",
          "name": "player1",
          "type": "address"
        },
        {
          "indexed": false,
          "internalType": "uint256",
          "name": "wager",
          "type": "uint256"
        }
      ],
      "name": "GameCreated",
      "type": "event"
    },
    {
      "anonymous": false,
      "inputs": [
        {
          "indexed": true,
          "internalType": "uint256",
          "name": "gameId",
          "type": "uint256"
        },
        {
          "indexed": true,
          "internalType": "address",
          "name": "winner",
          "type": "address"
        },
        {
          "indexed": false,
          "internalType": "uint256",
          "name": "payout",
          "type": "uint256"
        }
      ],
      "name": "GameFinished",
      "type": "event"
    },
    {
      "anonymous": false,
      "inputs": [
        {
          "indexed": true,
          "internalType": "uint256",
          "name": "gameId",
          "type": "uint256"
        },
        {
          "indexed": true,
          "internalType": "address",
          "name": "player2",
          "type": "address"
        }
      ],
      "name": "GameJoined",
      "type": "event"
    },
    {
      "anonymous": false,
      "inputs": [
        {
          "indexed": false,
          "internalType": "address",
          "name": "oldOracle",
          "type": "address"
        },
        {
          "indexed": false,
          "internalType": "address",
          "name": "newOracle",
          "type": "address"
        }
      ],
      "name": "OracleUpdated",
      "type": "event"
    },
    {
      "anonymous": false,
      "inputs": [
        {
          "indexed": true,
          "internalType": "address",
          "name": "previousOwner",
          "type": "address"
        },
        {
          "indexed": true,
          "internalType": "address",
          "name": "newOwner",
          "type": "address"
        }
      ],
      "name": "OwnershipTransferred",
      "type": "event"
    },
    {
      "anonymous": false,
      "inputs": [
        {
          "indexed": false,
          "internalType": "uint256",
          "name": "oldFee",
          "type": "uint256"
        },
        {
          "indexed": false,
          "internalType": "uint256",
          "name": "newFee",
          "type": "uint256"
        }
      ],
      "name": "ProtocolFeeUpdated",
      "type": "event"
    },
    {
      "anonymous": false,
      "inputs": [
        {
          "indexed": true,
          "internalType": "uint256",
          "name": "gameId",
          "type": "uint256"
        },
        {
          "indexed": true,
          "internalType": "address",
          "name": "winner",
          "type": "address"
        },
        {
          "indexed": false,
          "internalType": "uint256",
          "name": "amount",
          "type": "uint256"
        }
      ],
      "name": "WinningsClaimed",
      "type": "event"
    },
    {
      "inputs": [],
      "name": "MAX_FEE_BPS",
      "outputs": [
        {
          "internalType": "uint256",
          "name": "",
          "type": "uint256"
        }
      ],
      "stateMutability": "view",
      "type": "function"
    },
    {
      "inputs": [],
      "name": "accumulatedFees",
      "outputs": [
        {
          "internalType": "uint256",
          "name": "",
          "type": "uint256"
        }
      ],
      "stateMutability": "view",
      "type": "function"
    },
    {
      "inputs": [
        {
          "internalType": "uint256",
          "name": "gameId",
          "type": "uint256"
        }
      ],
      "name": "claimTimeout",
      "outputs": [],
      "stateMutability": "nonpayable",
      "type": "function"
    },
    {
      "inputs": [
        {
          "internalType": "uint256",
          "name": "gameId",
          "type": "uint256"
        }
      ],
      "name": "claimWinnings",
      "outputs": [],
      "stateMutability": "nonpayable",
      "type": "function"
    },
    {
      "inputs": [],
      "name": "createGame",
      "outputs": [
        {
          "internalType": "uint256",
          "name": "gameId",
          "type": "uint256"
        }
      ],
      "stateMutability": "payable",
      "type": "function"
    },
    {
      "inputs": [],
      "name": "gameCounter",
      "outputs": [
        {
          "internalType": "uint256",
          "name": "",
          "type": "uint256"
        }
      ],
      "stateMutability": "view",
      "type": "function"
    },
    {
      "inputs": [
        {
          "internalType": "uint256",
          "name": "",
          "type": "uint256"
        }
      ],
      "name": "games",
      "outputs": [
        {
          "internalType": "address",
          "name": "player1",
          "type": "address"
        },
        {
          "internalType": "address",
          "name": "player2",
          "type": "address"
        },
        {
          "internalType": "uint256",
          "name": "wager",
          "type": "uint256"
        },
        {
          "internalType": "enum IPuntoArena.GameState",
          "name": "state",
          "type": "uint8"
        },
        {
          "internalType": "address",
          "name": "winner",
          "type": "address"
        },
        {
          "internalType": "uint256",
          "name": "createdAt",
          "type": "uint256"
        }
      ],
      "stateMutability": "view",
      "type": "function"
    },
    {
      "inputs": [],
      "name": "getAccumulatedFees",
      "outputs": [
        {
          "internalType": "uint256",
          "name": "",
          "type": "uint256"
        }
      ],
      "stateMutability": "view",
      "type": "function"
    },
    {
      "inputs": [
        {
          "internalType": "uint256",
          "name": "gameId",
          "type": "uint256"
        }
      ],
      "name": "getGame",
      "outputs": [
        {
          "components": [
            {
              "internalType": "address",
              "name": "player1",
              "type": "address"
            },
            {
              "internalType": "address",
              "name": "player2",
              "type": "address"
            },
            {
              "internalType": "uint256",
              "name": "wager",
              "type": "uint256"
            },
            {
              "internalType": "enum IPuntoArena.GameState",
              "name": "state",
              "type": "uint8"
            },
            {
              "internalType": "address",
              "name": "winner",
              "type": "address"
            },
            {
              "internalType": "uint256",
              "name": "createdAt",
              "type": "uint256"
            }
          ],
          "internalType": "struct IPuntoArena.Game",
          "name": "",
          "type": "tuple"
        }
      ],
      "stateMutability": "view",
      "type": "function"
    },
    {
      "inputs": [],
      "name": "getMinWager",
      "outputs": [
        {
          "internalType": "uint256",
          "name": "",
          "type": "uint256"
        }
      ],
      "stateMutability": "view",
      "type": "function"
    },
    {
      "inputs": [],
      "name": "getProtocolFee",
      "outputs": [
        {
          "internalType": "uint256",
          "name": "",
          "type": "uint256"
        }
      ],
      "stateMutability": "view",
      "type": "function"
    },
    {
      "inputs": [],
      "name": "getTimeout",
      "outputs": [
        {
          "internalType": "uint256",
          "name": "",
          "type": "uint256"
        }
      ],
      "stateMutability": "view",
      "type": "function"
    },
    {
      "inputs": [
        {
          "internalType": "uint256",
          "name": "gameId",
          "type": "uint256"
        }
      ],
      "name": "joinGame",
      "outputs": [],
      "stateMutability": "payable",
      "type": "function"
    },
    {
      "inputs": [],
      "name": "minWager",
      "outputs": [
        {
          "internalType": "uint256",
          "name": "",
          "type": "uint256"
        }
      ],
      "stateMutability": "view",
      "type": "function"
    },
    {
      "inputs": [],
      "name": "oracle",
      "outputs": [
        {
          "internalType": "address",
          "name": "",
          "type": "address"
        }
      ],
      "stateMutability": "view",
      "type": "function"
    },
    {
      "inputs": [],
      "name": "owner",
      "outputs": [
        {
          "internalType": "address",
          "name": "",
          "type": "address"
        }
      ],
      "stateMutability": "view",
      "type": "function"
    },
    {
      "inputs": [],
      "name": "protocolFeeBps",
      "outputs": [
        {
          "internalType": "uint256",
          "name": "",
          "type": "uint256"
        }
      ],
      "stateMutability": "view",
      "type": "function"
    },
    {
      "inputs": [],
      "name": "renounceOwnership",
      "outputs": [],
      "stateMutability": "nonpayable",
      "type": "function"
    },
    {
      "inputs": [
        {
          "internalType": "uint256",
          "name": "_minWager",
          "type": "uint256"
        }
      ],
      "name": "setMinWager",
      "outputs": [],
      "stateMutability": "nonpayable",
      "type": "function"
    },
    {
      "inputs": [
        {
          "internalType": "address",
          "name": "_oracle",
          "type": "address"
        }
      ],
      "name": "setOracle",
      "outputs": [],
      "stateMutability": "nonpayable",
      "type": "function"
    },
    {
      "inputs": [
        {
          "internalType": "uint256",
          "name": "feeBps",
          "type": "uint256"
        }
      ],
      "name": "setProtocolFee",
      "outputs": [],
      "stateMutability": "nonpayable",
      "type": "function"
    },
    {
      "inputs": [
        {
          "internalType": "uint256",
          "name": "_timeout",
          "type": "uint256"
        }
      ],
      "name": "setTimeout",
      "outputs": [],
      "stateMutability": "nonpayable",
      "type": "function"
    },
    {
      "inputs": [
        {
          "internalType": "uint256",
          "name": "gameId",
          "type": "uint256"
        },
        {
          "internalType": "address",
          "name": "winner",
          "type": "address"
        },
        {
          "internalType": "bytes",
          "name": "signature",
          "type": "bytes"
        }
      ],
      "name": "submitResult",
      "outputs": [],
      "stateMutability": "nonpayable",
      "type": "function"
    },
    {
      "inputs": [],
      "name": "timeout",
      "outputs": [
        {
          "internalType": "uint256",
          "name": "",
          "type": "uint256"
        }
      ],
      "stateMutability": "view",
      "type": "function"
    },
    {
      "inputs": [
        {
          "internalType": "address",
          "name": "newOwner",
          "type": "address"
        }
      ],
      "name": "transferOwnership",
      "outputs": [],
      "stateMutability": "nonpayable",
      "type": "function"
    },
    {
      "inputs": [
        {
          "internalType": "uint256",
          "name": "",
          "type": "uint256"
        }
      ],
      "name": "winningsClaimed",
      "outputs": [
        {
          "internalType": "bool",
          "name": "",
          "type": "bool"
        }
      ],
      "stateMutability": "view",
      "type": "function"
    },
    {
      "inputs": [
        {
          "internalType": "address",
          "name": "to",
          "type": "address"
        }
      ],
      "name": "withdrawFees",
      "outputs": [],
      "stateMutability": "nonpayable",
      "type": "function"
    }
  ],
  "bytecode": "0x60806040526101f4600355662386f26fc10000600455620151806005553480156200002957600080fd5b5060405162001a2238038062001a228339810160408190526200004c9162000143565b33806200007457604051631e4fbdf760e01b8152600060048201526024015b60405180910390fd5b6200007f81620000f3565b50600180556001600160a01b038116620000cd5760405162461bcd60e51b815260206004820152600e60248201526d496e76616c6964206f7261636c6560901b60448201526064016200006b565b600780546001600160a01b0319166001600160a01b039290921691909117905562000175565b600080546001600160a01b038381166001600160a01b0319831681178455604051919092169283917f8be0079c531659141344cd1fd0a4f28419497f9722a3daafe3b4186f6b6457e09190a35050565b6000602082840312156200015657600080fd5b81516001600160a01b03811681146200016e57600080fd5b9392505050565b61189d80620001856000396000f3fe60806040526004361061019c5760003560e01c8063787dce3d116100ec578063a5a410311161008a578063c58a34cc11610064578063c58a34cc146104ac578063d55be8c6146104cc578063efaa55a0146104e2578063f2fde38b146104f557600080fd5b8063a5a4103114610461578063b13bd33914610476578063bb9c3f2b1461049657600080fd5b806386e773f1116100c657806386e773f1146103d65780638da5cb5b146103f65780639ae980a814610414578063a2f77bcc1461043457600080fd5b8063787dce3d1461035e5780637adbf9731461037e5780637dc0d1d01461039e57600080fd5b8063587f5ed711610159578063677bd9ff11610133578063677bd9ff1461030b57806370dea79a1461032b578063715018a6146103415780637255d7291461035657600080fd5b8063587f5ed7146102a057806358aa4545146102b65780635df45a37146102f657600080fd5b8063117a5b90146101a1578063164e68de1461021e578063184ccf7d146102405780632e0be39a1461025f5780633499ba951461027557806335659fb81461028a575b600080fd5b3480156101ad57600080fd5b506102036101bc366004611625565b600860205260009081526040902080546001820154600283015460038401546004909401546001600160a01b039384169492841693919260ff811692610100909104169086565b60405161021596959493929190611676565b60405180910390f35b34801561022a57600080fd5b5061023e6102393660046116d5565b610515565b005b34801561024c57600080fd5b506004545b604051908152602001610215565b34801561026b57600080fd5b5061025160025481565b34801561028157600080fd5b50600554610251565b34801561029657600080fd5b5061025160035481565b3480156102ac57600080fd5b5061025160065481565b3480156102c257600080fd5b506102e66102d1366004611625565b60096020526000908152604090205460ff1681565b6040519015158152602001610215565b34801561030257600080fd5b50600654610251565b34801561031757600080fd5b5061023e610326366004611625565b610660565b34801561033757600080fd5b5061025160055481565b34801561034d57600080fd5b5061023e610898565b6102516108ac565b34801561036a57600080fd5b5061023e610379366004611625565b610a22565b34801561038a57600080fd5b5061023e6103993660046116d5565b610aac565b3480156103aa57600080fd5b506007546103be906001600160a01b031681565b6040516001600160a01b039091168152602001610215565b3480156103e257600080fd5b5061023e6103f1366004611625565b610b64565b34801561040257600080fd5b506000546001600160a01b03166103be565b34801561042057600080fd5b5061023e61042f366004611625565b610e58565b34801561044057600080fd5b5061045461044f366004611625565b610e65565b60405161021591906116f7565b34801561046d57600080fd5b50600354610251565b34801561048257600080fd5b5061023e610491366004611752565b610f31565b3480156104a257600080fd5b5061025160045481565b3480156104b857600080fd5b5061023e6104c7366004611625565b6111de565b3480156104d857600080fd5b506102516103e881565b61023e6104f0366004611625565b6111eb565b34801561050157600080fd5b5061023e6105103660046116d5565b61133e565b61051d611379565b6105256113a6565b6001600160a01b0381166105725760405162461bcd60e51b815260206004820152600f60248201526e496e76616c6964206164647265737360881b60448201526064015b60405180910390fd5b600680546000918290556040519091906001600160a01b0384169083908381818185875af1925050503d80600081146105c7576040519150601f19603f3d011682016040523d82523d6000602084013e6105cc565b606091505b505090508061060f5760405162461bcd60e51b815260206004820152600f60248201526e15da5d1a191c985dc819985a5b1959608a1b6044820152606401610569565b826001600160a01b03167fc0819c13be868895eb93e40eaceb96de976442fa1d404e5c55f14bb65a8c489a8360405161064a91815260200190565b60405180910390a2505061065d60018055565b50565b6106686113a6565b6000818152600860205260409020600260038083015460ff16908111156106915761069161163e565b146106d25760405162461bcd60e51b815260206004820152601160248201527011d85b59481b9bdd08199a5b9a5cda1959607a1b6044820152606401610569565b600381015461010090046001600160a01b031633146107205760405162461bcd60e51b815260206004820152600a6024820152692737ba103bb4b73732b960b11b6044820152606401610569565b60008281526009602052604090205460ff16156107715760405162461bcd60e51b815260206004820152600f60248201526e105b1c9958591e4818db185a5b5959608a1b6044820152606401610569565b6000828152600960205260408120805460ff19166001179055600280830154610799916117ef565b90506000612710600354836107ae91906117ef565b6107b89190611806565b905060006107c68284611828565b604051909150600090339083908381818185875af1925050503d806000811461080b576040519150601f19603f3d011682016040523d82523d6000602084013e610810565b606091505b50509050806108535760405162461bcd60e51b815260206004820152600f60248201526e151c985b9cd9995c8819985a5b1959608a1b6044820152606401610569565b604051828152339087907f5380cf6fe903b40c6d5a9e0dfbca2f3a423f0a21520b4d5947ed5169bdba946d9060200160405180910390a3505050505061065d60018055565b6108a0611379565b6108aa60006113d0565b565b60006004543410156108f65760405162461bcd60e51b815260206004820152601360248201527257616765722062656c6f77206d696e696d756d60681b6044820152606401610569565b6002600081546109059061183b565b91829055506040805160c081018252338152600060208083018281523484860190815260608501848152608086018590524260a0870152878552600890935294909220835181546001600160a01b03199081166001600160a01b039283161783559351600180840180549096169190921617909355935160028501555160038085018054969750939591939260ff19909216919084908111156109aa576109aa61163e565b021790555060808201516003820180546001600160a01b0390921661010002610100600160a81b031990921691909117905560a090910151600490910155604051348152339082907f7dfb67e9ff596fca4da65c7eedb128cd1aac553af54b3c0cb733625a2480d8bd9060200160405180910390a390565b610a2a611379565b6103e8811115610a6b5760405162461bcd60e51b815260206004820152600c60248201526b08ccaca40e8dede40d0d2ced60a31b6044820152606401610569565b60035460408051918252602082018390527fb404cac19fb1cbeff98d325795b08886e3cd8fe8cb1a2f193aac66f13fb239c3910160405180910390a1600355565b610ab4611379565b6001600160a01b038116610afb5760405162461bcd60e51b815260206004820152600e60248201526d496e76616c6964206f7261636c6560901b6044820152606401610569565b600754604080516001600160a01b03928316815291831660208301527f078c3b417dadf69374a59793b829c52001247130433427049317bde56607b1b7910160405180910390a1600780546001600160a01b0319166001600160a01b0392909216919091179055565b610b6c6113a6565b60008181526008602052604081209060038083015460ff1690811115610b9457610b9461163e565b1480610bb85750600160038083015460ff1690811115610bb657610bb661163e565b145b610bf15760405162461bcd60e51b815260206004820152600a60248201526911d85b5948195b99195960b21b6044820152606401610569565b6005548160040154610c039190611854565b421015610c485760405162461bcd60e51b8152602060048201526013602482015272151a5b595bdd5d081b9bdd081c995858da1959606a1b6044820152606401610569565b80546001600160a01b0316331480610c6c575060018101546001600160a01b031633145b610ca55760405162461bcd60e51b815260206004820152600a6024820152692737ba10383630bcb2b960b11b6044820152606401610569565b6003818101805460ff19169091179055600281015481546001600160a01b031615610d615781546040516000916001600160a01b03169083908381818185875af1925050503d8060008114610d16576040519150601f19603f3d011682016040523d82523d6000602084013e610d1b565b606091505b5050905080610d5f5760405162461bcd60e51b815260206004820152601060248201526f1499599d5b99081c0c4819985a5b195960821b6044820152606401610569565b505b60018201546001600160a01b031615610e0e5760018201546040516000916001600160a01b03169083908381818185875af1925050503d8060008114610dc3576040519150601f19603f3d011682016040523d82523d6000602084013e610dc8565b606091505b5050905080610e0c5760405162461bcd60e51b815260206004820152601060248201526f1499599d5b99081c0c8819985a5b195960821b6044820152606401610569565b505b827f0f023b047be6c305859504186f8b03ee5a634f9ab472ff386d3b1de9387c083e60405161064a906020808252600790820152661d1a5b595bdd5d60ca1b604082015260600190565b610e60611379565b600455565b6040805160c080820183526000808352602080840182905283850182905260608085018390526080850183905260a0850183905286835260088252918590208551938401865280546001600160a01b03908116855260018201541691840191909152600281015494830194909452600380850154939492939184019160ff1690811115610ef457610ef461163e565b6003811115610f0557610f0561163e565b8152600382015461010090046001600160a01b0316602082015260049091015460409091015292915050565b6000848152600860205260409020600160038083015460ff1690811115610f5a57610f5a61163e565b14610f995760405162461bcd60e51b815260206004820152600f60248201526e47616d65206e6f742061637469766560881b6044820152606401610569565b80546001600160a01b0385811691161480610fc3575060018101546001600160a01b038581169116145b6110005760405162461bcd60e51b815260206004820152600e60248201526d24b73b30b634b2103bb4b73732b960911b6044820152606401610569565b604080516020808201889052606087901b6bffffffffffffffffffffffff1916828401524660548084019190915283518084039091018152607490920190925280519101207f19457468657265756d205369676e6564204d6573736167653a0a3332000000006000908152601c829052603c8120905060006110ba86868080601f01602080910402602001604051908101604052809392919081815260200183838082843760009201919091525086939250506114209050565b6007549091506001600160a01b0380831691161461110e5760405162461bcd60e51b8152602060048201526011602482015270496e76616c6964207369676e617475726560781b6044820152606401610569565b60038401805460026001600160a81b03199091166101006001600160a01b038b160260ff19161781179091558085015460009161114b91906117ef565b905060006127106003548361116091906117ef565b61116a9190611806565b905060006111788284611828565b9050816006600082825461118c9190611854565b90915550506040518181526001600160a01b038b16908c907ff5d92df6ae1a0b46d0a0c57c2e1da0d75d7591d2804ad086cb1e27ba67de7aaf9060200160405180910390a35050505050505050505050565b6111e6611379565b600555565b60008181526008602052604081209060038083015460ff16908111156112135761121361163e565b146112535760405162461bcd60e51b815260206004820152601060248201526f47616d65206e6f742070656e64696e6760801b6044820152606401610569565b80546001600160a01b031633036112a35760405162461bcd60e51b815260206004820152601460248201527343616e6e6f74206a6f696e206f776e2067616d6560601b6044820152606401610569565b806002015434146112e75760405162461bcd60e51b815260206004820152600e60248201526d0aec2cecae440dad2e6dac2e8c6d60931b6044820152606401610569565b600180820180546001600160a01b0319163317905560038201805460ff191682800217905550604051339083907f45c4f9cbafe186141862608c493f28b823fde4c2142bedc3f5169961a73fdd2290600090a35050565b611346611379565b6001600160a01b03811661137057604051631e4fbdf760e01b815260006004820152602401610569565b61065d816113d0565b6000546001600160a01b031633146108aa5760405163118cdaa760e01b8152336004820152602401610569565b6002600154036113c957604051633ee5aeb560e01b815260040160405180910390fd5b6002600155565b600080546001600160a01b038381166001600160a01b0319831681178455604051919092169283917f8be0079c531659141344cd1fd0a4f28419497f9722a3daafe3b4186f6b6457e09190a35050565b600080600080611430868661144c565b9250925092506114408282611499565b50909150505b92915050565b600080600083516041036114865760208401516040850151606086015160001a61147888828585611556565b955095509550505050611492565b50508151600091506002905b9250925092565b60008260038111156114ad576114ad61163e565b036114b6575050565b60018260038111156114ca576114ca61163e565b036114e85760405163f645eedf60e01b815260040160405180910390fd5b60028260038111156114fc576114fc61163e565b0361151d5760405163fce698f760e01b815260048101829052602401610569565b60038260038111156115315761153161163e565b03611552576040516335e2f38360e21b815260048101829052602401610569565b5050565b600080807f7fffffffffffffffffffffffffffffff5d576e7357a4501ddfe92f46681b20a0841115611591575060009150600390508261161b565b604080516000808252602082018084528a905260ff891692820192909252606081018790526080810186905260019060a0016020604051602081039080840390855afa1580156115e5573d6000803e3d6000fd5b5050604051601f1901519150506001600160a01b0381166116115750600092506001915082905061161b565b9250600091508190505b9450945094915050565b60006020828403121561163757600080fd5b5035919050565b634e487b7160e01b600052602160045260246000fd5b6004811061167257634e487b7160e01b600052602160045260246000fd5b9052565b6001600160a01b03878116825286811660208301526040820186905260c08201906116a46060840187611654565b93909316608082015260a00152949350505050565b80356001600160a01b03811681146116d057600080fd5b919050565b6000602082840312156116e757600080fd5b6116f0826116b9565b9392505050565b81516001600160a01b0390811682526020808401518216908301526040808401519083015260608084015160c08401929161173490850182611654565b508060808501511660808401525060a083015160a083015292915050565b6000806000806060858703121561176857600080fd5b84359350611778602086016116b9565b9250604085013567ffffffffffffffff8082111561179557600080fd5b818701915087601f8301126117a957600080fd5b8135818111156117b857600080fd5b8860208285010111156117ca57600080fd5b95989497505060200194505050565b634e487b7160e01b600052601160045260246000fd5b8082028115828204841417611446576114466117d9565b60008261182357634e487b7160e01b600052601260045260246000fd5b500490565b81810381811115611446576114466117d9565b60006001820161184d5761184d6117d9565b5060010190565b80820180821115611446576114466117d956fea26469706673582212201480055735affe669d8c6215194db3291b57c6fe99652ee940bd41dbeed62cfe64736f6c63430008140033",
  "linkReferences": {},
  "deployedLinkReferences": {}
}